{
  "contractName": "DappToken",
  "abi": [
    {
      "constant": true,
      "inputs": [],
      "name": "name",
      "outputs": [
        {
          "name": "",
          "type": "string"
        }
      ],
      "payable": false,
      "stateMutability": "view",
      "type": "function"
    },
    {
      "constant": true,
      "inputs": [],
      "name": "totalSupply",
      "outputs": [
        {
          "name": "",
          "type": "uint256"
        }
      ],
      "payable": false,
      "stateMutability": "view",
      "type": "function"
    },
    {
      "constant": true,
      "inputs": [],
      "name": "standard",
      "outputs": [
        {
          "name": "",
          "type": "string"
        }
      ],
      "payable": false,
      "stateMutability": "view",
      "type": "function"
    },
    {
      "constant": true,
      "inputs": [
        {
          "name": "",
          "type": "address"
        }
      ],
      "name": "balanceOf",
      "outputs": [
        {
          "name": "",
          "type": "uint256"
        }
      ],
      "payable": false,
      "stateMutability": "view",
      "type": "function"
    },
    {
      "constant": true,
      "inputs": [],
      "name": "symbol",
      "outputs": [
        {
          "name": "",
          "type": "string"
        }
      ],
      "payable": false,
      "stateMutability": "view",
      "type": "function"
    },
    {
      "constant": true,
      "inputs": [
        {
          "name": "",
          "type": "address"
        },
        {
          "name": "",
          "type": "address"
        }
      ],
      "name": "allowance",
      "outputs": [
        {
          "name": "",
          "type": "uint256"
        }
      ],
      "payable": false,
      "stateMutability": "view",
      "type": "function"
    },
    {
      "inputs": [
        {
          "name": "_initialSupply",
          "type": "uint256"
        }
      ],
      "payable": false,
      "stateMutability": "nonpayable",
      "type": "constructor"
    },
    {
      "anonymous": false,
      "inputs": [
        {
          "indexed": true,
          "name": "_from",
          "type": "address"
        },
        {
          "indexed": true,
          "name": "_to",
          "type": "address"
        },
        {
          "indexed": false,
          "name": "_value",
          "type": "uint256"
        }
      ],
      "name": "Transfer",
      "type": "event"
    },
    {
      "anonymous": false,
      "inputs": [
        {
          "indexed": true,
          "name": "_owner",
          "type": "address"
        },
        {
          "indexed": true,
          "name": "_spender",
          "type": "address"
        },
        {
          "indexed": false,
          "name": "_value",
          "type": "uint256"
        }
      ],
      "name": "Approval",
      "type": "event"
    },
    {
      "constant": false,
      "inputs": [
        {
          "name": "_to",
          "type": "address"
        },
        {
          "name": "_value",
          "type": "uint256"
        }
      ],
      "name": "transfer",
      "outputs": [
        {
          "name": "sucess",
          "type": "bool"
        }
      ],
      "payable": false,
      "stateMutability": "nonpayable",
      "type": "function"
    },
    {
      "constant": false,
      "inputs": [
        {
          "name": "_spender",
          "type": "address"
        },
        {
          "name": "_value",
          "type": "uint256"
        }
      ],
      "name": "approve",
      "outputs": [
        {
          "name": "sucess",
          "type": "bool"
        }
      ],
      "payable": false,
      "stateMutability": "nonpayable",
      "type": "function"
    },
    {
      "constant": false,
      "inputs": [
        {
          "name": "_from",
          "type": "address"
        },
        {
          "name": "_to",
          "type": "address"
        },
        {
          "name": "_value",
          "type": "uint256"
        }
      ],
      "name": "transferFrom",
      "outputs": [
        {
          "name": "success",
          "type": "bool"
        }
      ],
      "payable": false,
      "stateMutability": "nonpayable",
      "type": "function"
    }
  ],
  "bytecode": "0x60806040526040805190810160405280600a81526020017f4461707020746f6b656e000000000000000000000000000000000000000000008152506000908051906020019061004f929190610168565b506040805190810160405280600481526020017f44617070000000000000000000000000000000000000000000000000000000008152506001908051906020019061009b929190610168565b506040805190810160405280600481526020017f76312e3000000000000000000000000000000000000000000000000000000000815250600290805190602001906100e7929190610168565b503480156100f457600080fd5b50604051602080610db58339810180604052810190808051906020019092919050505080600460003373ffffffffffffffffffffffffffffffffffffffff1673ffffffffffffffffffffffffffffffffffffffff16815260200190815260200160002081905550806003819055505061020d565b828054600181600116156101000203166002900490600052602060002090601f016020900481019282601f106101a957805160ff19168380011785556101d7565b828001600101855582156101d7579182015b828111156101d65782518255916020019190600101906101bb565b5b5090506101e491906101e8565b5090565b61020a91905b808211156102065760008160009055506001016101ee565b5090565b90565b610b998061021c6000396000f300608060405260043610610099576000357c0100000000000000000000000000000000000000000000000000000000900463ffffffff16806306fdde031461009e578063095ea7b31461012e57806318160ddd1461019357806323b872dd146101be5780635a3b7e421461024357806370a08231146102d357806395d89b411461032a578063a9059cbb146103ba578063dd62ed3e1461041f575b600080fd5b3480156100aa57600080fd5b506100b3610496565b6040518080602001828103825283818151815260200191508051906020019080838360005b838110156100f35780820151818401526020810190506100d8565b50505050905090810190601f1680156101205780820380516001836020036101000a031916815260200191505b509250505060405180910390f35b34801561013a57600080fd5b50610179600480360381019080803573ffffffffffffffffffffffffffffffffffffffff16906020019092919080359060200190929190505050610534565b604051808215151515815260200191505060405180910390f35b34801561019f57600080fd5b506101a8610626565b6040518082815260200191505060405180910390f35b3480156101ca57600080fd5b50610229600480360381019080803573ffffffffffffffffffffffffffffffffffffffff169060200190929190803573ffffffffffffffffffffffffffffffffffffffff1690602001909291908035906020019092919050505061062c565b604051808215151515815260200191505060405180910390f35b34801561024f57600080fd5b5061025861089b565b6040518080602001828103825283818151815260200191508051906020019080838360005b8381101561029857808201518184015260208101905061027d565b50505050905090810190601f1680156102c55780820380516001836020036101000a031916815260200191505b509250505060405180910390f35b3480156102df57600080fd5b50610314600480360381019080803573ffffffffffffffffffffffffffffffffffffffff169060200190929190505050610939565b6040518082815260200191505060405180910390f35b34801561033657600080fd5b5061033f610951565b6040518080602001828103825283818151815260200191508051906020019080838360005b8381101561037f578082015181840152602081019050610364565b50505050905090810190601f1680156103ac5780820380516001836020036101000a031916815260200191505b509250505060405180910390f35b3480156103c657600080fd5b50610405600480360381019080803573ffffffffffffffffffffffffffffffffffffffff169060200190929190803590602001909291905050506109ef565b604051808215151515815260200191505060405180910390f35b34801561042b57600080fd5b50610480600480360381019080803573ffffffffffffffffffffffffffffffffffffffff169060200190929190803573ffffffffffffffffffffffffffffffffffffffff169060200190929190505050610b48565b6040518082815260200191505060405180910390f35b60008054600181600116156101000203166002900480601f01602080910402602001604051908101604052809291908181526020018280546001816001161561010002031660029004801561052c5780601f106105015761010080835404028352916020019161052c565b820191906000526020600020905b81548152906001019060200180831161050f57829003601f168201915b505050505081565b600081600560003373ffffffffffffffffffffffffffffffffffffffff1673ffffffffffffffffffffffffffffffffffffffff16815260200190815260200160002060008573ffffffffffffffffffffffffffffffffffffffff1673ffffffffffffffffffffffffffffffffffffffff168152602001908152602001600020819055508273ffffffffffffffffffffffffffffffffffffffff163373ffffffffffffffffffffffffffffffffffffffff167f8c5be1e5ebec7d5bd14f71427d1e84f3dd0314c0f7b2291e5b200ac8c7c3b925846040518082815260200191505060405180910390a36001905092915050565b60035481565b6000600460008573ffffffffffffffffffffffffffffffffffffffff1673ffffffffffffffffffffffffffffffffffffffff16815260200190815260200160002054821115151561067c57600080fd5b600560008573ffffffffffffffffffffffffffffffffffffffff1673ffffffffffffffffffffffffffffffffffffffff16815260200190815260200160002060003373ffffffffffffffffffffffffffffffffffffffff1673ffffffffffffffffffffffffffffffffffffffff16815260200190815260200160002054821115151561070757600080fd5b81600460008673ffffffffffffffffffffffffffffffffffffffff1673ffffffffffffffffffffffffffffffffffffffff1681526020019081526020016000206000828254039250508190555081600460008573ffffffffffffffffffffffffffffffffffffffff1673ffffffffffffffffffffffffffffffffffffffff1681526020019081526020016000206000828254019250508190555081600560008673ffffffffffffffffffffffffffffffffffffffff1673ffffffffffffffffffffffffffffffffffffffff16815260200190815260200160002060003373ffffffffffffffffffffffffffffffffffffffff1673ffffffffffffffffffffffffffffffffffffffff168152602001908152602001600020600082825403925050819055508273ffffffffffffffffffffffffffffffffffffffff168473ffffffffffffffffffffffffffffffffffffffff167fddf252ad1be2c89b69c2b068fc378daa952ba7f163c4a11628f55a4df523b3ef846040518082815260200191505060405180910390a3600190509392505050565b60028054600181600116156101000203166002900480601f0160208091040260200160405190810160405280929190818152602001828054600181600116156101000203166002900480156109315780601f1061090657610100808354040283529160200191610931565b820191906000526020600020905b81548152906001019060200180831161091457829003601f168201915b505050505081565b60046020528060005260406000206000915090505481565b60018054600181600116156101000203166002900480601f0160208091040260200160405190810160405280929190818152602001828054600181600116156101000203166002900480156109e75780601f106109bc576101008083540402835291602001916109e7565b820191906000526020600020905b8154815290600101906020018083116109ca57829003601f168201915b505050505081565b600081600460003373ffffffffffffffffffffffffffffffffffffffff1673ffffffffffffffffffffffffffffffffffffffff1681526020019081526020016000205410151515610a3f57600080fd5b81600460003373ffffffffffffffffffffffffffffffffffffffff1673ffffffffffffffffffffffffffffffffffffffff1681526020019081526020016000206000828254039250508190555081600460008573ffffffffffffffffffffffffffffffffffffffff1673ffffffffffffffffffffffffffffffffffffffff168152602001908152602001600020600082825401925050819055508273ffffffffffffffffffffffffffffffffffffffff163373ffffffffffffffffffffffffffffffffffffffff167fddf252ad1be2c89b69c2b068fc378daa952ba7f163c4a11628f55a4df523b3ef846040518082815260200191505060405180910390a36001905092915050565b60056020528160005260406000206020528060005260406000206000915091505054815600a165627a7a723058209a99a7e1a4e49d5aadbda84886772d4e35bfda12968850d3a7f2682df43af9840029",
  "source": "pragma solidity ^0.4.2;\r\n\r\ncontract DappToken {\r\n//constructor \r\n//set token number of token \r\n//read the total number of token \r\n\r\n//name\r\n//symbol\r\n   string public name =\"Dapp token\";\r\n   string public symbol =\"Dapp\";\r\n   string public standard ='v1.0';\r\n\r\n   uint256 public totalSupply; //solidity get function for free !!!!\r\n\r\n   event Transfer(\r\n       address indexed _from,\r\n       address indexed _to,\r\n       uint256 _value\r\n   );\r\n\r\n   // approve \r\n   event Approval\r\n   (\r\n       address indexed _owner,\r\n       address indexed _spender,\r\n       uint256 _value  );\r\n  \r\n   mapping(address=> uint256)public balanceOf; //how has each token \r\n   mapping(address => mapping(address => uint256) ) public allowance ;\r\n     \r\n    //allowance \r\n\r\n    function DappToken (uint256 _initialSupply) public{    //stolidity declaration \r\n         balanceOf[msg.sender] = _initialSupply;\r\n         totalSupply = _initialSupply; // var accessible like class var ==> right to the blockchain \r\n         //allocate the initial supply\r\n   }\r\n\r\n   //transfer\r\n   \r\n   function transfer(address _to, uint256 _value) public returns(bool sucess){\r\n        //exception if account not enough\r\n         require(balanceOf[msg.sender] >= _value);\r\n        //transfer the balance \r\n          balanceOf[msg.sender] -= _value;\r\n          balanceOf[_to] += _value;\r\n       //transfer event     \r\n        Transfer(msg.sender , _to , _value);\r\n\r\n        //return boolean\r\n        return true; \r\n     \r\n\r\n   }\r\n\r\n    //delegated transfer \r\n    //************************************************************ */\r\n    // 2 step  process: 1-allows the account to approuve a transaction \r\n    //                  2- handle the delegate transfer \r\n    // approve : allow s.o to spend tokens (exchange )  // Approval event \r\n    // transferForm : after approuving \r\n    //allowance : the amount of tokens approuved to spend \r\n        \r\n\r\n     //Approve event  : i'm account A i would approuve the amount of _value tokens exchanges \r\n     function approve(address _spender , uint256 _value)public returns (bool sucess){\r\n         // allowance \r\n        allowance[msg.sender][_spender] = _value; \r\n         //Approve event \r\n         Approval(msg.sender, _spender, _value);\r\n\r\n        return true;\r\n\r\n     }\r\n\r\n\r\n\r\n\r\n\r\n         function transferFrom(address _from, address _to, uint256 _value) public returns (bool success) {\r\n     // **********************  to do ****************************\r\n            // require from account has enough tokens \r\n           //   return bool \r\n           // transfer event \r\n           // change the balance \r\n           // update  the allowance \r\n          \r\n           // require allowance is big enough \r\n\r\n        require(_value <= balanceOf[_from]);\r\n        require(_value <= allowance[_from][msg.sender]);\r\n\r\n        balanceOf[_from] -= _value;\r\n        balanceOf[_to] += _value;\r\n\r\n        allowance[_from][msg.sender] -= _value;\r\n\r\n        Transfer(_from, _to, _value);\r\n\r\n        return true;\r\n    }\r\n\r\n\r\n\r\n\r\n\r\n  \r\n}",
  "sourcePath": "C:\\Users\\ASUSS\\blockchain\\token_sale\\contracts\\DappToken.sol",
  "compiler": {
    "name": "solc",
    "version": "0.4.24+commit.e67f0147.Emscripten.clang"
  },
  "schemaVersion": "2.0.1",
  "updatedAt": "2018-07-30T13:13:35.607Z"
}