{
  "contractName": "DappToken",
  "abi": [
    {
      "constant": true,
      "inputs": [],
      "name": "totalSupply",
      "outputs": [
        {
          "name": "",
          "type": "uint256"
        }
      ],
      "payable": false,
      "stateMutability": "view",
      "type": "function"
    },
    {
      "inputs": [],
      "payable": false,
      "stateMutability": "nonpayable",
      "type": "constructor"
    }
  ],
  "bytecode": "0x608060405234801561001057600080fd5b50620f4240600081905550609e806100296000396000f300608060405260043610603f576000357c0100000000000000000000000000000000000000000000000000000000900463ffffffff16806318160ddd146044575b600080fd5b348015604f57600080fd5b506056606c565b6040518082815260200191505060405180910390f35b600054815600a165627a7a72305820f1ca2d4f80fa877db248ce3d1eb4f0da1be2f4caf12468ea9e9561213421da9a0029",
  "source": "pragma solidity ^0.4.2;\r\n\r\ncontract DappToken {\r\n//constructor \r\n//set token number of token \r\n//read the total number of token \r\n   uint256 public totalSupply; //solidity get function for free !!!!\r\n  \r\n   function DappToken() public{ //stolidity declaration \r\n         totalSupply = 1000000; // var accessible like class var ==> right to the blockchain \r\n\r\n   }\r\n  \r\n}",
  "sourcePath": "C:\\Users\\ASUSS\\blockchain\\token_sale\\contracts\\DappToken.sol",
  "compiler": {
    "name": "solc",
    "version": "0.4.24+commit.e67f0147.Emscripten.clang"
  },
  "schemaVersion": "2.0.1",
  "updatedAt": "2018-07-29T02:26:11.358Z"
}